{
  "contractName": "Payroll",
  "abi": [
    {
      "inputs": [],
      "stateMutability": "nonpayable",
      "type": "constructor"
    },
    {
      "inputs": [],
      "name": "CompanyCount",
      "outputs": [
        {
          "internalType": "uint256",
          "name": "",
          "type": "uint256"
        }
      ],
      "stateMutability": "view",
      "type": "function",
      "constant": true
    },
    {
      "inputs": [],
      "name": "employeeCount",
      "outputs": [
        {
          "internalType": "uint256",
          "name": "",
          "type": "uint256"
        }
      ],
      "stateMutability": "view",
      "type": "function",
      "constant": true
    },
    {
      "inputs": [
        {
          "internalType": "uint256",
          "name": "",
          "type": "uint256"
        }
      ],
      "name": "employeeList",
      "outputs": [
        {
          "internalType": "address",
          "name": "id",
          "type": "address"
        },
        {
          "internalType": "string",
          "name": "name",
          "type": "string"
        },
        {
          "internalType": "string",
          "name": "email",
          "type": "string"
        },
        {
          "internalType": "string",
          "name": "employeeType",
          "type": "string"
        },
        {
          "internalType": "uint256",
          "name": "yearlyUSDSalary",
          "type": "uint256"
        },
        {
          "internalType": "uint256",
          "name": "totalReceivedUSD",
          "type": "uint256"
        },
        {
          "internalType": "uint256",
          "name": "totalDistributed",
          "type": "uint256"
        }
      ],
      "stateMutability": "view",
      "type": "function",
      "constant": true
    },
    {
      "inputs": [
        {
          "internalType": "address",
          "name": "_comapnyAddress",
          "type": "address"
        },
        {
          "internalType": "string",
          "name": "name",
          "type": "string"
        },
        {
          "internalType": "string",
          "name": "description",
          "type": "string"
        },
        {
          "internalType": "string",
          "name": "website",
          "type": "string"
        },
        {
          "internalType": "uint256",
          "name": "company_id",
          "type": "uint256"
        }
      ],
      "name": "createCompany",
      "outputs": [],
      "stateMutability": "nonpayable",
      "type": "function"
    },
    {
      "inputs": [
        {
          "internalType": "uint256",
          "name": "_companyId",
          "type": "uint256"
        }
      ],
      "name": "checkCompanyDetails",
      "outputs": [
        {
          "internalType": "string",
          "name": "companyName",
          "type": "string"
        }
      ],
      "stateMutability": "view",
      "type": "function",
      "constant": true
    },
    {
      "inputs": [
        {
          "internalType": "uint256",
          "name": "_employeeID",
          "type": "uint256"
        },
        {
          "internalType": "address",
          "name": "_employeeAddress",
          "type": "address"
        },
        {
          "internalType": "string",
          "name": "name",
          "type": "string"
        },
        {
          "internalType": "string",
          "name": "email",
          "type": "string"
        },
        {
          "internalType": "string",
          "name": "employeetype",
          "type": "string"
        },
        {
          "internalType": "uint256",
          "name": "_initialYearlyUSDSalary",
          "type": "uint256"
        }
      ],
      "name": "addEmployee",
      "outputs": [],
      "stateMutability": "nonpayable",
      "type": "function"
    },
    {
      "inputs": [
        {
          "internalType": "uint256",
          "name": "_employeeID",
          "type": "uint256"
        }
      ],
      "name": "removeEmployee",
      "outputs": [],
      "stateMutability": "nonpayable",
      "type": "function"
    },
    {
      "inputs": [
        {
          "internalType": "address",
          "name": "_employeeWalletAddress",
          "type": "address"
        },
        {
          "internalType": "uint256",
          "name": "amount",
          "type": "uint256"
        },
        {
          "internalType": "uint256",
          "name": "_employeeID",
          "type": "uint256"
        }
      ],
      "name": "SendEther",
      "outputs": [],
      "stateMutability": "payable",
      "type": "function",
      "payable": true
    }
  ],
  "bytecode": "0x60806040526000600255600060035534801561001a57600080fd5b50336000806101000a81548173ffffffffffffffffffffffffffffffffffffffff021916908373ffffffffffffffffffffffffffffffffffffffff1602179055506116cd8061006a6000396000f3fe60806040526004361061007b5760003560e01c8063a87ac87f1161004e578063a87ac87f1461013a578063c3b2d07a14610156578063f170e58c14610199578063fd2f0f06146101c25761007b565b806321ed0f64146100805780636b832070146100a95780639047bf58146100d257806393894630146100fd575b600080fd5b34801561008c57600080fd5b506100a760048036038101906100a29190610d71565b6101ed565b005b3480156100b557600080fd5b506100d060048036038101906100cb9190610f42565b610356565b005b3480156100de57600080fd5b506100e7610583565b6040516100f49190611020565b60405180910390f35b34801561010957600080fd5b50610124600480360381019061011f9190610d71565b610589565b60405161013191906110c3565b60405180910390f35b610154600480360381019061014f91906110e5565b610689565b005b34801561016257600080fd5b5061017d60048036038101906101789190610d71565b610840565b6040516101909796959493929190611147565b60405180910390f35b3480156101a557600080fd5b506101c060048036038101906101bb91906111cb565b610a3a565b005b3480156101ce57600080fd5b506101d7610bcf565b6040516101e49190611020565b60405180910390f35b60008054906101000a900473ffffffffffffffffffffffffffffffffffffffff1673ffffffffffffffffffffffffffffffffffffffff163373ffffffffffffffffffffffffffffffffffffffff161461024557600080fd5b8061024f81610bd5565b61028e576040517f08c379a0000000000000000000000000000000000000000000000000000000008152600401610285906112f8565b60405180910390fd5b600160025461029d9190611347565b60028190555060046000838152602001908152602001600020600401546006546102c79190611347565b60068190555060046000838152602001908152602001600020600080820160006101000a81549073ffffffffffffffffffffffffffffffffffffffff02191690556001820160006103189190610c44565b6002820160006103289190610c44565b6003820160006103389190610c44565b60048201600090556005820160009055600682016000905550505050565b60008054906101000a900473ffffffffffffffffffffffffffffffffffffffff1673ffffffffffffffffffffffffffffffffffffffff163373ffffffffffffffffffffffffffffffffffffffff16146103ae57600080fd5b80600073ffffffffffffffffffffffffffffffffffffffff166005600083815260200190815260200160002060000160009054906101000a900473ffffffffffffffffffffffffffffffffffffffff1673ffffffffffffffffffffffffffffffffffffffff1614610454576040517f08c379a000000000000000000000000000000000000000000000000000000000815260040161044b906113ed565b60405180910390fd5b6000600560008481526020019081526020016000209050868160000160006101000a81548173ffffffffffffffffffffffffffffffffffffffff021916908373ffffffffffffffffffffffffffffffffffffffff160217905550858160010190805190602001906104c6929190610c84565b50848160020190805190602001906104df929190610c84565b50838160030190805190602001906104f8929190610c84565b50338160040160006101000a81548173ffffffffffffffffffffffffffffffffffffffff021916908373ffffffffffffffffffffffffffffffffffffffff16021790555042816005018190555060008160060160006101000a81548160ff021916908315150217905550600360008154809291906105759061140d565b919050555050505050505050565b60025481565b606060008054906101000a900473ffffffffffffffffffffffffffffffffffffffff1673ffffffffffffffffffffffffffffffffffffffff163373ffffffffffffffffffffffffffffffffffffffff16146105e357600080fd5b60056000838152602001908152602001600020600101805461060490611485565b80601f016020809104026020016040519081016040528092919081815260200182805461063090611485565b801561067d5780601f106106525761010080835404028352916020019161067d565b820191906000526020600020905b81548152906001019060200180831161066057829003601f168201915b50505050509050919050565b60008054906101000a900473ffffffffffffffffffffffffffffffffffffffff1673ffffffffffffffffffffffffffffffffffffffff163373ffffffffffffffffffffffffffffffffffffffff16146106e157600080fd5b806106eb81610bd5565b61072a576040517f08c379a0000000000000000000000000000000000000000000000000000000008152600401610721906112f8565b60405180910390fd5b823373ffffffffffffffffffffffffffffffffffffffff16311015610784576040517f08c379a000000000000000000000000000000000000000000000000000000000815260040161077b90611503565b60405180910390fd5b60008490506000808273ffffffffffffffffffffffffffffffffffffffff16866040516107b090611554565b60006040518083038185875af1925050503d80600081146107ed576040519150601f19603f3d011682016040523d82523d6000602084013e6107f2565b606091505b509150915081610837576040517f08c379a000000000000000000000000000000000000000000000000000000000815260040161082e906115b5565b60405180910390fd5b50505050505050565b60046020528060005260406000206000915090508060000160009054906101000a900473ffffffffffffffffffffffffffffffffffffffff169080600101805461088990611485565b80601f01602080910402602001604051908101604052809291908181526020018280546108b590611485565b80156109025780601f106108d757610100808354040283529160200191610902565b820191906000526020600020905b8154815290600101906020018083116108e557829003601f168201915b50505050509080600201805461091790611485565b80601f016020809104026020016040519081016040528092919081815260200182805461094390611485565b80156109905780601f1061096557610100808354040283529160200191610990565b820191906000526020600020905b81548152906001019060200180831161097357829003601f168201915b5050505050908060030180546109a590611485565b80601f01602080910402602001604051908101604052809291908181526020018280546109d190611485565b8015610a1e5780601f106109f357610100808354040283529160200191610a1e565b820191906000526020600020905b815481529060010190602001808311610a0157829003601f168201915b5050505050908060040154908060050154908060060154905087565b60008054906101000a900473ffffffffffffffffffffffffffffffffffffffff1673ffffffffffffffffffffffffffffffffffffffff163373ffffffffffffffffffffffffffffffffffffffff1614610a9257600080fd5b85610a9c81610bd5565b15610adc576040517f08c379a0000000000000000000000000000000000000000000000000000000008152600401610ad390611621565b60405180910390fd5b8160008111610aea57600080fd5b60026000815480929190610afd9061140d565b919050555082600654610b109190611641565b6006819055506000600460008a81526020019081526020016000209050878160000160006101000a81548173ffffffffffffffffffffffffffffffffffffffff021916908373ffffffffffffffffffffffffffffffffffffffff16021790555085816002019080519060200190610b88929190610c84565b5086816001019080519060200190610ba1929190610c84565b5084816003019080519060200190610bba929190610c84565b50838160040181905550505050505050505050565b60035481565b60008073ffffffffffffffffffffffffffffffffffffffff166004600084815260200190815260200160002060000160009054906101000a900473ffffffffffffffffffffffffffffffffffffffff1673ffffffffffffffffffffffffffffffffffffffff1614159050919050565b508054610c5090611485565b6000825580601f10610c625750610c81565b601f016020900490600052602060002090810190610c809190610d0a565b5b50565b828054610c9090611485565b90600052602060002090601f016020900481019282610cb25760008555610cf9565b82601f10610ccb57805160ff1916838001178555610cf9565b82800160010185558215610cf9579182015b82811115610cf8578251825591602001919060010190610cdd565b5b509050610d069190610d0a565b5090565b5b80821115610d23576000816000905550600101610d0b565b5090565b6000604051905090565b600080fd5b600080fd5b6000819050919050565b610d4e81610d3b565b8114610d5957600080fd5b50565b600081359050610d6b81610d45565b92915050565b600060208284031215610d8757610d86610d31565b5b6000610d9584828501610d5c565b91505092915050565b600073ffffffffffffffffffffffffffffffffffffffff82169050919050565b6000610dc982610d9e565b9050919050565b610dd981610dbe565b8114610de457600080fd5b50565b600081359050610df681610dd0565b92915050565b600080fd5b600080fd5b6000601f19601f8301169050919050565b7f4e487b7100000000000000000000000000000000000000000000000000000000600052604160045260246000fd5b610e4f82610e06565b810181811067ffffffffffffffff82111715610e6e57610e6d610e17565b5b80604052505050565b6000610e81610d27565b9050610e8d8282610e46565b919050565b600067ffffffffffffffff821115610ead57610eac610e17565b5b610eb682610e06565b9050602081019050919050565b82818337600083830152505050565b6000610ee5610ee084610e92565b610e77565b905082815260208101848484011115610f0157610f00610e01565b5b610f0c848285610ec3565b509392505050565b600082601f830112610f2957610f28610dfc565b5b8135610f39848260208601610ed2565b91505092915050565b600080600080600060a08688031215610f5e57610f5d610d31565b5b6000610f6c88828901610de7565b955050602086013567ffffffffffffffff811115610f8d57610f8c610d36565b5b610f9988828901610f14565b945050604086013567ffffffffffffffff811115610fba57610fb9610d36565b5b610fc688828901610f14565b935050606086013567ffffffffffffffff811115610fe757610fe6610d36565b5b610ff388828901610f14565b925050608061100488828901610d5c565b9150509295509295909350565b61101a81610d3b565b82525050565b60006020820190506110356000830184611011565b92915050565b600081519050919050565b600082825260208201905092915050565b60005b8381101561107557808201518184015260208101905061105a565b83811115611084576000848401525b50505050565b60006110958261103b565b61109f8185611046565b93506110af818560208601611057565b6110b881610e06565b840191505092915050565b600060208201905081810360008301526110dd818461108a565b905092915050565b6000806000606084860312156110fe576110fd610d31565b5b600061110c86828701610de7565b935050602061111d86828701610d5c565b925050604061112e86828701610d5c565b9150509250925092565b61114181610dbe565b82525050565b600060e08201905061115c600083018a611138565b818103602083015261116e818961108a565b90508181036040830152611182818861108a565b90508181036060830152611196818761108a565b90506111a56080830186611011565b6111b260a0830185611011565b6111bf60c0830184611011565b98975050505050505050565b60008060008060008060c087890312156111e8576111e7610d31565b5b60006111f689828a01610d5c565b965050602061120789828a01610de7565b955050604087013567ffffffffffffffff81111561122857611227610d36565b5b61123489828a01610f14565b945050606087013567ffffffffffffffff81111561125557611254610d36565b5b61126189828a01610f14565b935050608087013567ffffffffffffffff81111561128257611281610d36565b5b61128e89828a01610f14565b92505060a061129f89828a01610d5c565b9150509295509295509295565b7f456d706c6f796565204e6f742052656769737465726564000000000000000000600082015250565b60006112e2601783611046565b91506112ed826112ac565b602082019050919050565b60006020820190508181036000830152611311816112d5565b9050919050565b7f4e487b7100000000000000000000000000000000000000000000000000000000600052601160045260246000fd5b600061135282610d3b565b915061135d83610d3b565b9250828210156113705761136f611318565b5b828203905092915050565b7f436f6d70616e7920646566696e6974696f6e20616c726561647920657869737460008201527f2e00000000000000000000000000000000000000000000000000000000000000602082015250565b60006113d7602183611046565b91506113e28261137b565b604082019050919050565b60006020820190508181036000830152611406816113ca565b9050919050565b600061141882610d3b565b91507fffffffffffffffffffffffffffffffffffffffffffffffffffffffffffffffff82141561144b5761144a611318565b5b600182019050919050565b7f4e487b7100000000000000000000000000000000000000000000000000000000600052602260045260246000fd5b6000600282049050600182168061149d57607f821691505b602082108114156114b1576114b0611456565b5b50919050565b7f42616c616e6365206973206c6f77000000000000000000000000000000000000600082015250565b60006114ed600e83611046565b91506114f8826114b7565b602082019050919050565b6000602082019050818103600083015261151c816114e0565b9050919050565b600081905092915050565b50565b600061153e600083611523565b91506115498261152e565b600082019050919050565b600061155f82611531565b9150819050919050565b7f4661696c656420746f2073656e64204574686572000000000000000000000000600082015250565b600061159f601483611046565b91506115aa82611569565b602082019050919050565b600060208201905081810360008301526115ce81611592565b9050919050565b7f456d706c6f796565205265676973746572656400000000000000000000000000600082015250565b600061160b601383611046565b9150611616826115d5565b602082019050919050565b6000602082019050818103600083015261163a816115fe565b9050919050565b600061164c82610d3b565b915061165783610d3b565b9250827fffffffffffffffffffffffffffffffffffffffffffffffffffffffffffffffff0382111561168c5761168b611318565b5b82820190509291505056fea2646970667358221220ef26dfae3a64fe8591bc8388bae90aee4e86bea01e21cc92e808a0434e298a6c64736f6c634300080b0033",
  "immutableReferences": {},
  "source": "// SPDX-License-Identifier: MIT\r\npragma solidity ^0.8.0;\r\n\r\n//import \"@openzeppelin/contracts/token/ERC20/ERC20.sol\";\r\n\r\ncontract Payroll\r\n{\r\n\r\n    struct Company {\r\n        address id;\r\n        string name;\r\n        string description;\r\n        string website;\r\n        address owner;\r\n        uint createdAt;\r\n        bool paused;\r\n    }\r\n\r\n\r\n\r\n struct Employee {\r\n        address id;\r\n        string name ;\r\n        string email ;\r\n        string employeeType;\r\n        uint256 yearlyUSDSalary;\r\n        uint256 totalReceivedUSD;\r\n        uint256 totalDistributed;\r\n        \r\n    }\r\n\r\n\r\nstruct Payment {\r\n        address to;\r\n        address sourceToken;\r\n        address targetToken;\r\n        uint targetAmount;\r\n        uint sourceAmount;\r\n        uint minRate;\r\n        uint maxRate;\r\n    }\r\n\r\n\r\n/* STATE VARIABLES */\r\n    \r\n    address private owner;\r\n    address private oracle;\r\n    uint256 public employeeCount = 0;\r\n    uint256 public CompanyCount = 0;\r\n\r\n    mapping(uint256 => Employee) public employeeList;\r\n\r\n    mapping (uint256 => Company) private companyList ; \r\n\r\n    uint256 private totalYearlyUSDSalary;\r\n\r\n\r\n     /* HELPERS */\r\n\r\n    /* Checks if the employee is registered in the payroll */\r\n    function exists(uint256 _employeeID)\r\n    internal\r\n    view\r\n    returns (bool)\r\n    {\r\n        return employeeList[_employeeID].id != address(0x0);\r\n    }\r\n\r\n /* CONSTRUCTOR */\r\n constructor()\r\n {\r\n     owner = msg.sender;\r\n }\r\n\r\n\r\n/* ACCESS RULES */\r\n    modifier onlyByOwner() {\r\n        require(msg.sender == owner);\r\n        _;\r\n    }\r\n    modifier onlyByEmployee(uint256 _employeeID) {\r\n        require(exists(_employeeID));\r\n        _;\r\n    }\r\n   \r\n   \r\n    modifier onlyPositive(uint256 _value) {\r\n        require(_value > 0);\r\n        _;\r\n    }\r\n    modifier onlyRegistered(uint256 _employeeID ) {\r\n        require(exists(_employeeID),  \"Employee Not Registered\");\r\n        _;\r\n    }\r\n    modifier onlyNotRegistered(uint256 _employeeID) {\r\n        require(!exists(_employeeID) , \"Employee Registered\");\r\n        _;\r\n    }\r\n\r\n\r\n     modifier existCompany(uint256 _companyid) {\r\n        require(companyList[_companyid].id != address(0x0), \"Company definition doesn't exist.\");\r\n        _;\r\n    }\r\n\r\n    modifier NotexistCompany(uint256 _companyid) {\r\n        require(companyList[_companyid].id == address(0x0), \"Company definition already exist.\");\r\n        _;\r\n    }\r\n    \r\n   \r\n\r\n    function createCompany(\r\n        address _comapnyAddress, \r\n        string memory name , \r\n        string memory description , \r\n        string memory website ,\r\n        uint256 company_id\r\n        )\r\n    external\r\n    onlyByOwner\r\n    NotexistCompany(company_id)\r\n    {\r\n        Company storage c = companyList[company_id];\r\n        c.id = _comapnyAddress ;\r\n        c.name = name; \r\n        c.description = description ; \r\n        c.website = website ; \r\n        c.owner = msg.sender ; \r\n        c.createdAt = block.timestamp ; \r\n        c.paused = false ;  \r\n        CompanyCount++;\r\n\r\n    }\r\n\r\n\r\n    function checkCompanyDetails(uint256 _companyId) view\r\n    external\r\n     onlyByOwner\r\n     returns (string memory companyName ) \r\n    {\r\n        return companyList[_companyId].name;\r\n    }\r\n\r\n    /*  Adds an employee into the payroll if it is not already registered and has valid tokens and salary */\r\n    function addEmployee(\r\n        uint256 _employeeID, \r\n        address _employeeAddress, \r\n        string memory name , \r\n        string memory email , \r\n        string memory employeetype ,\r\n        uint256 _initialYearlyUSDSalary)\r\n    external\r\n    onlyByOwner\r\n    onlyNotRegistered(_employeeID)\r\n    onlyPositive(_initialYearlyUSDSalary)\r\n    {\r\n        employeeCount++;\r\n        totalYearlyUSDSalary = totalYearlyUSDSalary + _initialYearlyUSDSalary;\r\n       \r\n       // employeesMap[_employeeAddress] = Employee(_employeeAddress, _initialYearlyEURSalary, 0, 0);\r\n\r\n       Employee storage e = employeeList[_employeeID] ; \r\n       e.id = _employeeAddress ; \r\n       e.email = email ;\r\n       e.name = name ; \r\n       e.employeeType = employeetype ; \r\n       e.yearlyUSDSalary = _initialYearlyUSDSalary ;\r\n      \r\n\r\n    }\r\n\r\n/*  Removes the employee from the payroll if it is registered in the payroll */\r\n    function removeEmployee(uint256 _employeeID)\r\n    external\r\n    onlyByOwner\r\n    onlyRegistered(_employeeID)\r\n    {\r\n        employeeCount = employeeCount - 1;\r\n        totalYearlyUSDSalary = totalYearlyUSDSalary - employeeList[_employeeID].yearlyUSDSalary;\r\n        delete employeeList[_employeeID];\r\n       \r\n       \r\n    }\r\n\r\n    function SendEther(address  _employeeWalletAddress , uint256 amount , uint256 _employeeID )\r\n    payable\r\n    external\r\n    onlyByOwner\r\n    onlyRegistered(_employeeID)\r\n    {\r\n        require(msg.sender.balance >= amount, \"Balance is low\");\r\n       address payable receiver = payable(_employeeWalletAddress);\r\n       // Call returns a boolean value indicating success or failure.\r\n        // This is the current recommended method to use.\r\n        (bool sent, bytes memory data) = receiver.call{value: amount}(\"\");\r\n        require(sent, \"Failed to send Ether\");\r\n    }\r\n\r\n\r\n}",
  "sourcePath": "C:\\Users\\shiva\\KwikDAO\\contracts\\Payroll.sol",
  "compiler": {
    "name": "solc",
    "version": "0.8.11+commit.d7f03943.Emscripten.clang"
  },
  "schemaVersion": "3.4.4",
  "updatedAt": "2022-03-01T05:09:58.073Z",
  "networkType": "ethereum",
  "devdoc": {
    "kind": "dev",
    "methods": {},
    "version": 1
  },
  "userdoc": {
    "kind": "user",
    "methods": {},
    "version": 1
  }
}